:1000000000800020BD010000511C0000151C0000F4
:10001000151C0000151C0000151C0000151C00001C
:10002000151C0000151C0000151C0000511C0000D0
:10003000511C0000151C0000511C0000051C000094
:10004000511C0000511C0000511C0000511C0000FC
:10005000511C0000511C0000511C0000511C0000EC
:10006000511C0000511C0000511C0000511C0000DC
:10007000511C0000511C0000511C0000511C0000CC
:10008000511C0000511C0000511C0000511C0000BC
:10009000511C0000511C0000511C0000511C0000AC
:1000A000511C0000511C0000511C0000511C00009C
:1000B000511C0000511C0000511C0000511C00008C
:1000C000511C0000511C0000511C0000511C00007C
:1000D000511C0000511C0000511C0000511C00006C
:1000E000511C0000511C0000511C0000511C00005C
:1000F000511C0000ED210000511C0000E927000008
:10010000511C0000092D0000511C0000511C000072
:10011000511C0000511C0000511C0000511C00002B
:10012000511C0000511C0000511C0000511C00001B
:10013000511C0000511C0000511C0000511C00000B
:10014000511C0000511C0000511C0000511C0000FB
:10015000511C0000511C0000511C0000511C0000EB
:10016000C9050000E50E0000511C0000511C0000F4
:10017000511C0000511C0000511C0000511C0000CB
:10018000511C0000511C0000511C0000511C0000BB
:10019000511C0000511C0000511C0000511C0000AB
:1001A000511C0000511C0000511C0000511C00009B
:1001B000511C0000511C0000511C0000574B4CF218
:1001C000205210B51A804DF628121A8000BF00BFC9
:1001D00001F042FD524B4FF010621A60514A9A6092
:1001E000514ADA60A3F53043203B1A6812F480725A
:1001F00004D14E490A604FF4A8521A604C4B1A7849
:10020000110703D51A7842F008021A70494B4A4C7C
:100210004A482A221A704A4A00239918A14203D256
:10022000195899500433F8E7464B474900228B424E
:1002300002D243F8042BFAE74448454900235A58B0
:100240001A500433B3F5DE7FF9D1424B424A802184
:1002500003F8011B9342FBD1404B3C4A1A60404BD0
:100260000A221A70A3F5805324225A70A0221A7011
:100270009A799207FCD59A79D406FCD4394A9379B5
:1002800003F00C03082B374BF9D105221A714322D6
:100290005A719A799006FCD5324A9179314B4906C8
:1002A000FBD5314A4FF08171116005215160202248
:1002B0001A709A7902F00C020C2AFAD12B4B2C4AB4
:1002C0001A602C4B2C4A1A6000225A60072243F80D
:1002D000042C2A4AC3F80C2D62B600F0C5FC134B5F
:1002E0001B68DA0705D5264800F02EFC254B264A68
:1002F0001A60264B1B785B0609D5224C224A2368DC
:10030000934204D11E4800F01FFC0023236003F039
:1003100045FE01F0A7FC01F01FFCFEE70E200540A2
:1003200030800440823F04000100002B14D00340C1
:1003300002D0074000E007404C90FF1FC04B000078
:100340006087FF1F4C90FF1F4C94FF1F0082FF1F10
:100350000000000000E400E05FE400E008ED00E0E1
:1003600000500640004006404480044004800440A1
:10037000C010050014E000E03F190100000020203B
:10038000C84C33571CE00340A5C3945A00F0074003
:10039000FFFFFFFFFFFFFFFFFFFFFFFFFFFFFFFF6D
:1003A000FFFFFFFFFFFFFFFFFFFFFFFFFFFFFFFF5D
:1003B000FFFFFFFFFFFFFFFFFFFFFFFFFFFFFFFF4D
:1003C000FFFFFFFFFFFFFFFFFFFFFFFFFFFFFFFF3D
:1003D000FFFFFFFFFFFFFFFFFFFFFFFFFFFFFFFF2D
:1003E000FFFFFFFFFFFFFFFFFFFFFFFFFFFFFFFF1D
:1003F000FFFFFFFFFFFFFFFFFFFFFFFFFFFFFFFF0D
:10040000FFFFFFFFFFFFFFFFFFFFFFFFFEFFFFFFFD
:1004100010B5054C237833B9044B13B10448AFF33E
:1004200000800123237010BD4C90FF1F00000000CE
:10043000C04B000008B5064B1BB106480649AFF398
:1004400000800648036813B1054B03B1984708BD07
:1004500000000000C04B00005090FF1F4C90FF1F99
:100460000000000008B50C4B1A780132D2B21A70A5
:100470000A4B1B783BB90A20012100F075FB0122D1
:10048000064B1A7008BD0A20002100F06DFB002207
:10049000024B1A7008BD00BF7090FF1F6890FF1FCD
:1004A00008B50A20012100F083FB0B20012100F098
:1004B0007FFB0C20012100F07BFB4FF47A7000F0F1
:1004C000BDFB0F20002100F073FB1120002100F084
:1004D0006FFB1020002100F06BFB11200A49032262
:1004E00000F0EAFA0022094B1A70094B1A68094B0E
:1004F0001A60094B186803F0ADFB084903F0FEFBD6
:10050000074B186008BD00BF650400007090FF1F16
:100510003891FF1F7890FF1F7490FF1FDB0FC940B9
:100520006C90FF1F2DE9F04383B01E4B1B78DBB2AC
:10053000132B34D91B4C20781B4FD7F800901B4D40
:1005400003F084FB1A4903F0D9FB8046194E30684A
:10055000C0EB090003F07AFB0146404603F082FC41
:10056000154903F0CBFB154903F07CFC28603B6880
:10057000336000232370124C23685B6820461149C6
:1005800004229847286802F09DFF02460B4602218C
:100590000091204601F03CFA204601F0EBF903B04F
:1005A000BDE8F0837090FF1F3891FF1F7C90FF1F04
:1005B00000007A447890FF1F000070420000E04085
:1005C0003092FF1FF048000008B5394B93F9003016
:1005D000384A12881A4112F0010F07D0364AD05C0F
:1005E000002100F0C1FA0C22314B1A70334B1B78FA
:1005F0005AB20B2A36DC2F4A10885AB240FA02F15E
:1006000011F0010F27D009E05AB240FA02F111F0BF
:10061000010F01D1DBB21EE028490B70264B985C1C
:10062000012100F0A1FA254B1A7821490A7052B233
:10063000234931F81210234A106808441060224AF6
:1006400010680144116042F6A3710C3A11601A78E7
:1006500001321A7008BD0133DBB25AB20C2AD3D171
:10066000164A1370174B1968C1F52F3303F54873F9
:10067000B3F5617F05DB4EF660229342A8BF1346B7
:1006800001E04FF461730F4A194411600E49086884
:1006900003440B6042F6A3710C4B196012680C4BBB
:1006A0009A4204D90023074A1360044A137008BD14
:1006B0006087FF1F8490FF1FA090FF1F8690FF1F81
:1006C0008890FF1F8090FF1F0C6003400060034074
:1006D0001FBF020060223A4B1A70E12201331A70E8
:1006E000384B1B78082B10D1012203F1804303F50E
:1006F0006C331A60132334490B6001F5FF2101F2BA
:10070000FC710A60314A13601FE00A2B0DD11922D7
:100710002F4B1A6013232C490B6001F5FF2101F2C6
:10072000FC710A60294A13600FE00C2B0CBF1522E4
:100730003D22274B1A60122323490B6001F5FF214C
:1007400001F2FC710A60214A1360224B1B7833B11D
:100750000123214A136002F50022136005E0002303
:100760001D4A136002F5002213601C4B1B78012BFD
:1007700006D880231A4A136002F5002213601AE09B
:10078000042B06D88423164A136002F50022136056
:1007900011E0082B06D88523114A136002F50022C8
:1007A000136008E0102B94BF862387230C4A136044
:1007B00002F50022136001220A4B1A70704700BF35
:1007C000004007406187FF1F0CB003400CB00B4096
:1007D00008B00340AD90FF1F20B003406287FF1FA9
:1007E00024B00340AC90FF1F10B5154B1C681C6073
:1007F00014F4805F05D0134BDB6813B1114BDB6839
:10080000984714F4005F05D00E4B1B6913B10D4BD4
:100810001B69984714F0200F05D00A4B1B6E13B1CB
:10082000084B1B6E984714F0100F07D0054BD3F8F8
:1008300084301BB1034BD3F88430984710BD00BF00
:10084000A0900440B090FF1F10B5274B1C681C609F
:1008500014F4803F05D0254B1B6813B1234B1B6854
:10086000984714F4003F05D0204B5B6813B11F4B31
:100870005B68984714F0010F05D01C4B1B6C13B13B
:100880001A4B1B6C984714F0020F05D0174B5B6C8A
:1008900013B1164B5B6C984714F0080F05D0134B3F
:1008A0009B6C13B1114B9B6C984714F0040F05D04F
:1008B0000E4BDB6C13B10D4BDB6C984714F4002F1F
:1008C00005D00A4B5B6E13B1084B5B6E984714F46E
:1008D000802F07D0054BD3F880301BB1034BD3F8E2
:1008E0008030984710BD00BFA0A00440B090FF1F0B
:1008F00010B5384B1C681C6014F0080F05D0364B3F
:100900005B6A13B1344B5B6A984714F0100F05D043
:10091000314B9B6A13B1304B9B6A984714F0400FE0
:1009200005D02D4BDB6A13B12B4BDB6A984714F0D3
:10093000800F05D0284B1B6B13B1274B1B6B9847BF
:1009400014F0200F05D0244B5B6B13B1224B5B6B73
:10095000984714F0010F05D01F4BDB6B13B11E4BF2
:10096000DB6B984714F0020F05D01B4B9B6D13B146
:10097000194B9B6D984714F0040F05D0164BDB6D97
:1009800013B1154BDB6D984714F4007F05D0124B63
:10099000DB6E13B1104BDB6E984714F4807F05D0EB
:1009A0000D4B1B6F13B10C4B1B6F984714F4806FEA
:1009B00005D0094B5B6F13B1074B5B6F984714F47D
:1009C000006F05D0044B9B6F13B1034B9B6F98478F
:1009D00010BD00BFA0B00440B090FF1F10B5264B63
:1009E0001C681C6014F0010F05D0244B9B6813B1E8
:1009F000224B9B68984714F0800F05D01F4B5B6912
:100A000013B11E4B5B69984714F0100F05D01B4BB8
:100A10009B6913B1194B9B69984714F0040F05D0DB
:100A2000164BDB6913B1154BDB69984714F0080FBF
:100A300005D0124B1B6A13B1104B1B6A984714F078
:100A4000020F05D00D4B9B6B13B10C4B9B6B984762
:100A500014F0200F05D0094B1B6D13B1074B1B6D14
:100A6000984714F0400F05D0044B5B6D13B1034B56
:100A70005B6D984710BD00BFA0C00440B090FF1F41
:100A800010B50B4B1C681C6014F0020F05D0094B0D
:100A90009B6E13B1074B9B6E984714F0010F05D066
:100AA000044BDB6F13B1034BDB6F984710BD00BFE6
:100AB000A0D00440B090FF1F30B4212831D8042AC0
:100AC0002FD8DFE802F00709050B03000B2406E02E
:100AD0000A2404E0082402E00C2400E00924124B5C
:100AE00003EBC0035A68114B114DC3F89C51114DD3
:100AF000C3F8A051104DC3F8A451104DC3F8A8512C
:100B00000F4DC3F8AC5172B6136823F47023136011
:100B10000C4D45F8201043F0807343EA0444146000
:100B200062B630BC704700BFF84800000082FF1F6B
:100B3000E907000049080000F1080000DD09000095
:100B4000810A0000B090FF1F044B00221A60044984
:100B50000A60044A106010221A60704714D00340E3
:100B600004D0034000D0034021281ED80F4B53F877
:100B7000303093F8802212F0FF0F08D019B1012213
:100B800083F880207047012283F800217047074BCB
:100B900003EBC000436821B11A6842F003021A60F7
:100BA00070471A6822F002021A607047F848000085
:100BB00021281CD80E4B03EBC0035B68012908D128
:100BC0000B4A52F8302082F880124FF4A2721A6059
:100BD0007047074A52F83020002082F8800219B985
:100BE0004FF480721A60704740F203121A60704727
:100BF000F848000072B60D4B1B680D4A12680D498B
:100C0000096862B611F0806F02D0322B88BF0132C2
:100C1000C3F58C3303F23F130749A1FB03031B0900
:100C20004FF47A7000FB0230704700BF18E000E01C
:100C30003891FF1F04ED00E0398EE33838B50546E2
:100C4000FFF7D8FF044625B938BD013D0AD004F5A9
:100C50007A74FFF7CFFF001BB0F57A7FF5D200F072
:100C6000AFFFF6E738BD00BF10B5254B4FF40002CB
:100C70001A604FF080721A604FF000721A604FF0E5
:100C800080621A604FF000621A6000201D4B1860ED
:100C900048F6FF710433196028231B4A1360083299
:100CA0001360083213600832136008321360083290
:100CB000136008321360083213600922134C22605B
:100CC00004F580540434206004342160043423602B
:100CD00008342360143C226004F5FE2404342060B0
:100CE0000B4801600B490B6008310B600A4B1A601E
:100CF000FFF7F0FCFA20FFF7A1FF00F073FC10BD36
:100D000008E100E0048003400C80034000800340C1
:100D100008800B400C800B4000800B4030B40E4B21
:100D20001B7843F002020D4C04EBC20460600C48D7
:100D3000007800280CBF8824C82444EA0141074DEC
:100D400045F8321080F00100054A107083F001036D
:100D5000014A137030BC7047A491FF1F0080FF1F31
:100D60001D92FF1F10B4431E032B11D872B60A4AFE
:100D700052F8230050B14268074941F82320074A3E
:100D800032F813400188611A22F8131062B600E0AD
:100D900000205DF8044B70479491FF1F3494FF1FAF
:100DA000013803280DD872B6074B53F820302BB109
:100DB000002001305B68002BFBD100E0002062B610
:100DC00070470020704700BFE891FF1F38B572B62A
:100DD00001231B491B4C5A1812F8012C12F0080F62
:100DE00024D09A0054F832506DB9164B03EBC2016F
:100DF00008304860144943F83210144B1A78013A0D
:100E00001A7062B638BD42F0010254F832506DB922
:100E10000C4B03EBC201083048600D4943F8321017
:100E20000A4B1A78013A1A7062B638BD0133052BA5
:100E3000D1D162B60022054B1A7000F037FC38BDE4
:100E4000304A00000080FF1F880040001292FF1F00
:100E5000C800400010B4431E032B37D8400140F0B7
:100E600010001C4A104472B61B4AD25C032A09D8EF
:100E7000DFE802F019021B050830022216E00830F4
:100E8000042213E0154A52F823201AB9134A42F8F3
:100E9000231003E0124A52F823205160104A42F80E
:100EA000231062B612E0032200E005220A4CE2544D
:100EB00001F10803436000F00803002B0CBF8823F6
:100EC000C8230A8843EA0243036062B65DF8044B14
:100ED000704700BF0080FF1F5091FF1FE891FF1F68
:100EE000F891FF1F2DE9F84FA34CDFF8E092DFF8EF
:100EF000E0A2DFF8E0B22578EDB215F0040F1DD0C6
:100F00009E4B1B7813F0FF0F16D09D4B1B7803F000
:100F1000FF022BB1531EDBB2994A137003B900BE16
:100F2000984B1B7803F0FF0233B1531EDBB2954A96
:100F300013700BB900F0FAFC0423237015F0080FAE
:100F400000F0E48299F80030DBB21D0940F0218204
:100F50008D4D9E0805EBC6035A6855F83630C3F32D
:100F60008303013B0C2B00F21082DFE813F0CB016E
:100F7000CB010E020E020E020E020E020E02E8015C
:100F80000E020E020E020D00804913680B605268BB
:100F90004A607F4A45F8362000227E490A607A4935
:100FA0000A618A6101217C4A11709BB240F2816220
:100FB000934218D8B3F5D06F2ED2B3F5817F00F0ED
:100FC0001E8106D8802B00F0C980822B00F0CC80D7
:100FD00066E140F20232934200F02681B3F5A06F41
:100FE00000F062815CE142F22102934200F08681CE
:100FF00007D8B3F5086F00F0AB80B3F5106F11D0D0
:101000004EE142F22122934200F0418142F221322C
:10101000934200F0498143E1604B5D68002D40F050
:10102000188130E1594B9A78544B1A70564D05F19E
:1010300080062B6A13F0800F03D0686A083800F02E
:1010400035FB0835B542F4D1DFF88C8100263746F0
:10105000534AB05828B1456800F028FB0DB1284626
:10106000F9E700234E4973504E4AB3504E4BF058A7
:1010700028B1456800F01AFB0DB12846F9E70023B6
:1010800049497350494AB35028F8023F484BFB5C2A
:10109000023B032B0AD8DFE803F002060206002217
:1010A000434BDA5502E00122414BDA550137043651
:1010B000102ECDD100223F4B1A7001253E4EDFF895
:1010C0001C81314F05EB080313F8013C06F8043B83
:1010D00013F0080F2DD000F0C9FA48B1A90007EBB2
:1010E000451200F108035360344A47F8312007E005
:1010F000AB00002247F833202E4B1A7801321A70C9
:1011000000F0B4FA58B1AB0043F0010307EBC301A0
:1011100000F108024A601E4A47F8332009E0AB009C
:1011200043F00103002247F83320224B1A780132A2
:101130001A70AA0042F00201002347F8313042F051
:10114000030247F8323001351D4B9E42BAD11EE2F0
:101150000A4B1B781B4D2B700127AAE0194D002369
:101160002B706B700227A4E0084B9B88042B37D9A7
:101170000F22154B1A70C1E0802007401C92FF1F00
:10118000A591FF1F1E92FF1F0080FF1F0892FF1FE7
:10119000C80040003C91FF1F1D92FF1F344A000011
:1011A0009491FF1F4091FF1FE891FF1FF891FF1FCF
:1011B0005091FF1F1292FF1FC4200740880040007B
:1011C000D42007401492FF1FC02007409020074002
:1011D00094200740982007403294FF1F304A0000B7
:1011E000A04A0021117051709F4A12F8233013F069
:1011F000020F5CD09B4D01232B70022759E09B4BC3
:101200009B8803F07F03042B02DC984A52881AB1B2
:101210000F22954B1A7071E0934A12F8231021F0B7
:10122000020102F82310B2E1904B9B8803F07F0388
:10123000042B02DC8D4A52881AB10F228A4B1A7095
:101240005CE0894A12F8231041F0020102F82310F1
:101250009DE1864B5E889F88854BA3F10C02114669
:1012600033F80C0CB04209D133F80A0CB84205D15E
:10127000360A032E0CBF2F7817891AE00D690C333C
:101280000C32002DEBD10F22774B1A7036E0794BE0
:101290001A68794B1A60754B9A78784B1A7076E118
:1012A0000F22714B1A7029E000273D4601E002270A
:1012B0006C4D6E4BDB889F4228BF1F46402F34BFCA
:1012C0003E46402628463146FFF728FD3544BF1BE1
:1012D00003D13F2E00F2608110E0402F34BF3E4624
:1012E000402628463146FFF719FD3544BF1B01D182
:1012F0003F2E03D9624B1D60624B1F8001238AF889
:10130000003042E0594B198842F22103994212D130
:101310005D4BD81D12F8011B03F8011F8342F9D160
:101320005A4B1B68862B02D10F22594B1A70002092
:101330000146FFF7F3FC574B45F8363025E0504B9C
:101340001E68BEB14F4FB7F80080B8F1400F34BFF0
:101350004546402530462946FFF7E0FCC5EB08032B
:101360009BB23B800BB9402D01D1354400E00025F4
:10137000434B1D603D4B1B88B3F5A06F05D13B4B24
:1013800000225A709B788BF8003001238AF80030D5
:10139000B9E0414E9F0806EBC708D8F80420A2F137
:1013A0000800013DEDB213F0080F47D000F07EF9C0
:1013B0003A4B53F825304BB35A68384941F8252049
:1013C00003F10802C8F80420354A525D032A12D8F6
:1013D000DFE802F002060A0E0321314A51550AE005
:1013E00002212F4A515506E005212D4A515502E0B0
:1013F00004212B4A515518F0080F0CBF8822C8222F
:101400001B8842EA034346F837307CE0244B5B5D9F
:10141000032B0BD8DFE803F0777702060022204B7E
:101420005A5570E001221E4B5A556CE018F0080F17
:101430000CBF022203221A4B5A5564E056F837308B
:101440001B0C22F8083C002B55D0002322F8063C48
:1014500042F8043C134B53F825302BBB114B43F897
:10146000250025E01492FF1FC02007400892FF1FAF
:10147000404A00003891FF1F4494FF1F2C92FF1F29
:101480003C91FF1F1092FF1F3B94FF1F3C94FF1FD6
:10149000A591FF1FC80040000080FF1FE891FF1FBB
:1014A0005091FF1F9491FF1F3F4B53F82530586018
:1014B0003D4B43F825003D4B33F8151032F8082C0E
:1014C0000A4423F8152000F0D1F860B100F10803B8
:1014D000C8F8043018F0080F354B364A08BF1346D9
:1014E00046F837300FE0002346F83730324B1A7891
:1014F00001321A7007E018F0080F2D4B2D4A08BF73
:10150000134646F8373008232370F4E415F0010F32
:1015100022D02A4902230B700022294B1A70294B32
:1015200024481860284C5C6098602848D8601A618C
:101530009A610D20264B1870FF2326480370083847
:10154000037018300270244A13709F22234B1A70C4
:1015500001230B70BDE8F88F15F0800F05D00D2228
:101560001B4B1A708022403B1A7015F0020F06D0F8
:10157000184B1A78D2B21A700222083B1A7015F072
:10158000100F0ED01022164B1A70BDE8F88F0020F5
:101590000146FFF7C3FBB1E628460021FFF7BEFB7B
:1015A000ACE6BDE8F88F00BF4091FF1F3494FF1FE9
:1015B000C8004000880040001292FF1F942007409E
:1015C000A491FF1F0080FF1F5491FF1FA891FF1FD0
:1015D000C0200740882007408C2007408420074017
:1015E0008020074008B501F003FC00231B491A4680
:1015F0005A50C81842600833882BF9D1184B1A6822
:1016000042F480221A60154BC3F30721154A11706A
:10161000C3F30741143211701B0E04321370FF2301
:10162000343A137008321370783A137001238432FD
:10163000137000216C3211707C3A137070220A4BC7
:101640001A704FF40072A3F241331A60102203F1B2
:10165000C04303F5C8231A7008BD00BF0080FF1FF8
:10166000348004409C20074049E400E072B60D4BF2
:101670001A68B2FA82F30B2B02D962B600207047C7
:101680004FF00041D94022EA010206490A6062B6E1
:10169000054903EBC303DB00C8180022CA504260AF
:1016A000704700BF6487FF1F0084FF1F08B50F4B02
:1016B000C31A0F4AA2FB03131B090B2B14D80D4AA4
:1016C00012783AB10C4A127812F0FF0F02D0FFF7ED
:1016D0007DFB08BD72B6094A4FF0004121FA03F3C1
:1016E00011681943116062B608BD00BF0084FF1F76
:1016F000398EE3381292FF1F1C92FF1F6487FF1F71
:1017000010B5134B1B6853B9124B1B7813F0FF0F26
:1017100018D00320FFF726FB0D4B1860A8B10C4B27
:10172000186843885A1C03441C7A03889A4206D3DB
:10173000FFF7BCFF0022064B1A60204610BD428016
:10174000204610BD4FF0FF3010BD4FF0FF3010BDF0
:101750002892FF1F1C92FF1F08B50D4B1B6883B911
:101760000C4B1B7813F0FF0F08D00320FFF7FAFA99
:10177000074B186028B94FF0FF3008BD4FF0FF301D
:1017800008BD034B1B685A881344187A08BD00BF74
:101790002892FF1F1C92FF1F044B9888044B1B6864
:1017A0001BB11A885B88D31A184470473494FF1F02
:1017B0002892FF1F2DE9F04704460122374B1A708B
:1017C0000E46002964D0DFF8E080DFF8E0909A460A
:1017D000334FD8F8003083BB99F8003013F0FF0F77
:1017E00006D100222D4B1A704FF0FF30BDE8F08774
:1017F00048F601450420FFF7D3FA07280AD8012349
:101800008AF80030FFF732FFC8F80000A8B90023BB
:101810008AF80030013D01D03B7833B10122204BE2
:101820001A704FF0FF30BDE8F08700F0C9F999F861
:10183000003013F0FF0FDDD1D3E700233B70D8F861
:1018400000104A88C2F14005AE4238BF354602F169
:1018500008030B442A444A80761B3DB1254414F802
:10186000012B03F8012BAC42F9D100E025464B884F
:101870003F2B07D940230B800420FFF7EBFA00230E
:10188000C8F800300522074B1A700EB12C46A0E7AD
:101890000020024B1870BDE8F08700BF1F92FF1FA9
:1018A0002492FF1F1E92FF1F2092FF1F1C92FF1FFA
:1018B00000B583B002AB03F8010D18460121FFF714
:1018C00079FF03B05DF804FB10B5144B1B7813F0DF
:1018D000FF0F21D00122124B1A70124B196851B11F
:1018E0000024114B1C704B880B800420FFF7B2FAC8
:1018F0000C4B1C600DE0FFF7B9FE014630B1002231
:10190000094B1A700420FFF7A5FA02E00122064BEA
:101910001A700022024B1A7010BD00BF1C92FF1FEC
:101920001F92FF1F2092FF1F1E92FF1F08B50E4B34
:101930001B7813F0FF0F16D10C4B196841B14B887F
:101940000B800420FFF786FA0022084B1A6008BDBE
:10195000FFF78CFE014618B10420FFF77BFA08BDA3
:101960000122034B1A7008BD1F92FF1F2092FF1F18
:101970001E92FF1F00B583B0054B1B88ADF80430E5
:1019800003685B6801A90222984703B05DF804FB75
:10199000084A0000F0B58BB0164622B903681B68F0
:1019A000C9B298472FE0012A08BF0A2621B9302280
:1019B0008DF82520212417E021243746B1FBF6F5C8
:1019C00006FB1515EDB22246092D94BF303537358B
:1019D000EDB20DF1280E724402F8245CB1FBF7F170
:1019E00011B1013CE4B2E9E733B1013CE4B20AAB26
:1019F00023442D2203F8242C03685B6801A92144A9
:101A0000C4F1220298470BB0F0BD00BFFFFFFFFFFB
:101A10002DE9F04F87B0814616461F469DF840805D
:101A2000104619460022002302F012F828B107F1EF
:101A300000431F464FF0010A01E04FF0000AB8F1E1
:101A4000000F6ED04FF0000B0022414B3EA5D5E9B0
:101A500000451046194622462B4601F087FD0246F6
:101A60000B460BF1010B5FFA8BF18845F1D82AE0A8
:101A70003E462046294652465B4601F077FD044625
:101A80000D4602F00DF8C0B2771CFFB206AB1E4443
:101A900000F1300306F8103C01F002FD02460B464F
:101AA0002046294601F0AEFB04460D464745DFD1EE
:101AB00001E04FF00108D9F800305B68484602A900
:101AC000424698473CE03046394601F09DFB0446CB
:101AD0000D4601F0E5FF064601F0D2FC02460B463A
:101AE0002046294601F08EFB04460D464846314605
:101AF0000A225346FFF74EFF01902E238DF808303F
:101B0000B8F10F0F34BF43460F23002BD1D003F1A0
:101B100001085FFA88F801264FF0000ADFF834B0B8
:101B2000A7E7304639460022094B01F06DFB01F072
:101B3000B7FF014648460A225346FFF72BFF0190A4
:101B4000019807B0BDE8F08F000000A09999B93F57
:101B50000000E03F0000244008B5FEF7A1FCFEF7BE
:101B6000E1FC00F02DF8FAE708B5FFF715FE08BD17
:101B700008B5FFF7C5FD08BD08B5FFF7EDFD08BDC9
:101B800008B5FFF7A1FE08BD08B50846FFF790FEAF
:101B900008BD00BF08B508461146FFF70BFE08BD9B
:101BA000704700BF044B00221A714FF47A7199609C
:101BB0001A73024A1A6070473092FF1F184A0000D9
:101BC00008B50F4B1B78CBB901220D4B1A70FFF7EC
:101BD000E3FD08B1FFF7E4FF00F07EFA08B101F081
:101BE000D1F900F077FD08B101F062FA01F016F8C2
:101BF00008B101F0F3FA0022014B1A7008BD00BFD2
:101C00004092FF1F024B1A6801321A60704700BFF2
:101C10003891FF1F08B50D4C236813F4802F01D0B5
:101C2000FFF760F9236813F4806F01D000F0DEFA4B
:101C3000236813F4006F01D000F0D6FD236813F47D
:101C4000805FE9D001F060F8E6E700BF348004402F
:101C500008B5FFF7DFFF00BF1022014B1A80704765
:101C600000200540704700BF024A13681844106006
:101C7000184670476887FF1FEFF31383ABB9EFF384
:101C80001083ABB9EFF3058323B10F2B05D9094AB4
:101C9000985C03E04FF4807000E00020EFF31183C4
:101CA0003BB1834238BF184670474FF0FF30704752
:101CB00000207047F0E300E030B40023B0FBF2F402
:101CC00002FB14041D46092C94BF30343734E4B2AF
:101CD000CC54B0FBF2F008B10133EFE70D44002221
:101CE0006A70934207DD885CCC5C8C54C854013226
:101CF000013B9A42F7DB084630BC7047194B1A6823
:101D000042F480621A600023174A1370174A137056
:101D1000174A1370174A1370174A137040F21332A0
:101D2000164B1A604FF4517204331A60C0F34432F8
:101D3000134B1A70C0F347125A7000F01F009872CC
:101D400004229A700221D9745A7588221A743C228E
:101D5000DA7040220B4B1A704FF40052A3F2293371
:101D60001A60704734800440CC92FF1F4992FF1FD5
:101D7000D492FF1FCD92FF1F4892FF1F40A0044046
:101D800000A006402DE400E0164B9B7803F0EC0326
:101D900000F00302134310F0040F18BF43F01003C8
:101DA000104A937000F00F03042B04D1134692796C
:101DB00042F040029A710B4B5A7902F0EF0210F098
:101DC000100F18BF42F01002064B5A719B7903F0B6
:101DD000EF0310F0200F18BF43F01003014A937176
:101DE000704700BF00A0064010B5144B1B6813F4E9
:101DF000806F21D0124B1B7813F0FF0F06D0104CD0
:101E0000FFF7DEFE237813F0FF0FF9D14FF40052F5
:101E10000C4B1A6000230C4AD37040F203120B499A
:101E20000A6004310A600A4A13700A4A13700A4BA6
:101E30001B680BB101221A7010BD00BF3480044032
:101E40004892FF1F84E100E000A0064040A004404B
:101E5000CC92FF1F4992FF1F4492FF1F10B504460A
:101E6000094A137813F0FF0FFBD120460121FEF73A
:101E70009FFE20460021FEF777FE044B53F83420E6
:101E8000034B1A6010BD00BF4892FF1FF8480000C6
:101E9000D092FF1F10B50D4B1B6813F4806F12D04A
:101EA00021280CD80A4C0B4B53F830302360012109
:101EB000FEF77EFE236800221A70012010BD00206C
:101EC000034B186010BD002010BD00BF34800440DB
:101ED0004492FF1FF8480000114B1B6813F4806FF9
:101EE0001BD0122804D140F202320E4B1A600DE0D2
:101EF000142804D140F202320B4B1A6006E00B4B5F
:101F00005A7B02F0FE025A7300207047074B5A7B3F
:101F100042F001025A73012070470020704700BF51
:101F2000348004400CA0044014C0044000A00640CB
:101F30002DE9F04107461F4B1B6813F4806F37D023
:101F40001D4B1B680BB101221A701C4B1C7801340D
:101F5000402C28BF00241A4D1A4EDFF86C8017E081
:101F6000FFF78AFE40280FDC337913F0800F0FD083
:101F70002B780133402B28BF002318F80320D2B25E
:101F8000F271DBB22B7003E0FF2801DDFFF718FED2
:101F90002B78DBB29C42E3D0FFB20B4B1F550122E2
:101FA0000A4B1A70E4B2054B1C70BC22054BDA7068
:101FB000BDE8F08134800440D092FF1FD492FF1F0F
:101FC000CD92FF1F00A006404C92FF1F4892FF1FBA
:101FD0002DE9F84F0746284B1B6813F4806F49D052
:101FE000264B1B680BB101221A7007EB010B5F45F2
:101FF0003DD2DFF89890224EDFF88C80DFF890A079
:1020000099F800400134402C28BF00243578EDB207
:10201000A54220D1BC2388F80330FFF72DFE4028CD
:1020200011DC98F8043013F0800F10D033780133AE
:10203000402B28BF00231AF80320D2B288F80720CB
:10204000DBB2337003E0FF2801DDFFF7B9FD337821
:10205000DBB29D42E1D017F8013B0AF804300122BF
:10206000084B1A70E4B289F800405F45C8D1BC2221
:10207000054BDA70BDE8F88F34800440D092FF1F22
:10208000CD92FF1F4892FF1F00A00640D492FF1F71
:102090004C92FF1F10B5064B1B7813F0FF0F06D0B4
:1020A000034CFFF78DFD237813F0FF0FF9D110BD1E
:1020B0004892FF1F064B1B78DBB2064A1278D2B259
:1020C00093422CBF3F3202F1FF32D01A704700BF5B
:1020D000D492FF1FCD92FF1F054B1878C0B2054B5D
:1020E0001B78DBB2984238BF4030C01A704700BF3F
:1020F000CC92FF1F4992FF1F10B4184B1A78D2B22E
:10210000174B1B78DBB29A4218D001333F2B18D8FB
:102110001449C85CC0B2DCB211490C70124909689C
:10212000C9B19A4203D300E00023D31A01E0403240
:10213000D31A1A2B0FDC00230B700CE04FF0FF308A
:1021400009E0084B1878C0B20021054B1970064B06
:1021500019680029E8D15DF8044B7047CC92FF1F45
:102160004992FF1F8C92FF1F4492FF1F094B1A7860
:10217000D2B2094B1B78DBB29A4207D00133402B15
:1021800028BF0023054AD05CC0B270474FF0FF3033
:10219000704700BFCC92FF1F4992FF1F8C92FF1F18
:1021A0000D4B1B6813F4806F14D00C4BDA7802F0DF
:1021B000CB02DA7040225A74DA7842F03402DA70D4
:1021C000074B1A78D2B2074B1A70074B1B680BB13A
:1021D00000221A70704700BF3480044000A00640FF
:1021E0004992FF1FCC92FF1F4492FF1F70B43D4BDA
:1021F0001B7913F0300F33D072B63A4B9B7D03F04E
:10220000FF022BB9374BDA7940225A7462B627E0C5
:1022100062B6354B1978C9B2344B1C78E4B2314DF3
:10222000334EEB79D8B24B1C402B28BF0023A3427E
:102230001CBFF0541946531E13F0FF02F1D1CAB26D
:10224000294B1A702B4B1B6853B1A1422EBFC4EB14
:102250000101C4F1400409192729C4BF01221A70E1
:10226000204BDA78D2B212F0800F27D01B7913F00E
:10227000800F23D0204B1C78E4B2204B1B78DBB2BC
:102280009C4210D017491E4D01E0A3420BD00133F0
:10229000402B28BF00230879E85CC0B2C871087DD4
:1022A000C0B20728F1D9DBB214490B700D4B1B7972
:1022B00013F0800F02D07C210A4BD97012F0400F2E
:1022C0000ED0084B1B7913F0400F09D000220D4BA4
:1022D0001A700D4B1B6803B11A703C22014BDA7067
:1022E00070BC704700A00640CC92FF1F4992FF1FB0
:1022F0008C92FF1F4492FF1FD492FF1FCD92FF1FAD
:102300004C92FF1F4892FF1FD092FF1F194B1A6873
:1023100042F400621A600023174A1370174A1370C0
:10232000174A1370174A1370174A137040F213328A
:10233000164B1A604FF4517204331A60C0F34432E2
:10234000134B1A70C0F347125A7000F01F009872B6
:1023500004229A700221D9745A7588221A743C2278
:10236000DA7040220B4B1A704FF40042A3F22B3369
:102370001A607047348004404893FF1FDD92FF1FAE
:102380005093FF1F4993FF1FDC92FF1F0CB00440C6
:1023900000B006402FE400E0164B9B7803F0EC03FE
:1023A00000F00302134310F0040F18BF43F01003B2
:1023B000104A937000F00F03042B04D11346927956
:1023C00042F040029A710B4B5A7902F0EF0210F082
:1023D000100F18BF42F01002064B5A719B7903F0A0
:1023E000EF0310F0200F18BF43F01003014A937160
:1023F000704700BF00B0064010B5144B1B6813F4C3
:10240000006F21D0124B1B7813F0FF0F06D0104C39
:10241000FFF7D6FB237813F0FF0FF9D14FF40042FA
:102420000C4B1A6000230C4AD37040F203120B4984
:102430000A6004310A600A4A13700A4A13700A4B90
:102440001B680BB101221A7010BD00BF348004401C
:10245000DC92FF1F84E100E000B006400CB00440B5
:102460004893FF1FDD92FF1FD892FF1F10B504464F
:10247000094A137813F0FF0FFBD120460121FEF724
:1024800097FB20460021FEF76FFB044B53F83420E6
:10249000034B1A6010BD00BFDC92FF1FF84800001C
:1024A0004C93FF1F10B50D4B1B6813F4006F12D037
:1024B00021280CD80A4C0B4B53F8303023600121F3
:1024C000FEF776FB236800221A70012010BD002061
:1024D000034B186010BD002010BD00BF34800440C5
:1024E000D892FF1FF84800000D4B1B6813F4006FD3
:1024F00013D017280AD140F202320A4B1A600A4B55
:102500005A7B42F001025A7301207047064B5A7BF6
:1025100002F0FE025A73002070470020704700BF8F
:102520003480044008B0044000B006402DE9F0417A
:1025300007461F4B1B6813F4006F37D01D4B1B68F9
:102540000BB101221A701C4B1C780134282C28BFB7
:1025500000241A4D1A4EDFF86C8017E0FFF78CFB51
:1025600040280FDC337913F0800F0FD02B78013324
:10257000282B28BF002318F80320D2B2F271DBB257
:102580002B7003E0FF2801DDFFF71AFB2B78DBB28D
:102590009C42E3D0FFB20B4B1F5501220A4B1A702D
:1025A000E4B2054B1C70BC22054BDA70BDE8F0812B
:1025B000348004404C93FF1F5093FF1F4993FF1F2B
:1025C00000B00640E092FF1FDC92FF1F2DE9F84F9C
:1025D0000746284B1B6813F4006F49D0264B1B6835
:1025E0000BB101221A7007EB010B5F453DD2DFF8FA
:1025F0009890224EDFF88C80DFF890A099F8004088
:102600000134282C28BF00243578EDB2A54220D112
:10261000BC2388F80330FFF72FFB402811DC98F823
:10262000043013F0800F10D033780133282B28BFEB
:1026300000231AF80320D2B288F80720DBB23370E7
:1026400003E0FF2801DDFFF7BBFA3378DBB29D42E0
:10265000E1D017F8013B0AF804300122084B1A7048
:10266000E4B289F800405F45C8D1BC22054BDA705E
:10267000BDE8F88F348004404C93FF1F4993FF1F3F
:10268000DC92FF1F00B006405093FF1FE092FF1F37
:1026900010B5064B1B7813F0FF0F06D0034CFFF765
:1026A0008FFA237813F0FF0FF9D110BDDC92FF1FD2
:1026B000064B1B78DBB2064A1278D2B293422CBF8B
:1026C000273202F1FF32D01A704700BF5093FF1F2C
:1026D0004993FF1F054B1878C0B2054B1B78DBB23E
:1026E000984238BF4030C01A704700BF4893FF1F60
:1026F000DD92FF1F10B4184B1A78D2B2174B1B781B
:10270000DBB29A4218D001333F2B18D81449C85C69
:10271000C0B2DCB211490C7012490968C9B19A42C1
:1027200003D300E00023D31A01E04032D31A1A2B5E
:102730000FDC00230B700CE04FF0FF3009E0084B7A
:102740001878C0B20021054B1970064B1968002992
:10275000E8D15DF8044B70474893FF1FDD92FF1FDF
:102760000893FF1FD892FF1F094B1A78D2B2094B6A
:102770001B78DBB29A4207D00133402B28BF0023DD
:10278000054AD05CC0B270474FF0FF30704700BFC1
:102790004893FF1FDD92FF1F0893FF1F0D4B1B681F
:1027A00013F4006F14D00C4BDA7802F0CB02DA701D
:1027B00040225A74DA7842F03402DA70074B1A7801
:1027C000D2B2074B1A70074B1B680BB100221A706C
:1027D000704700BF3480044000B00640DD92FF1F08
:1027E0004893FF1FD892FF1F70B43D4B1B7913F025
:1027F000300F33D072B63A4B9B7D03F0FF022BB9FA
:10280000374BDA7940225A7462B627E062B6354B0C
:102810001978C9B2344B1C78E4B2314D334EEB79A0
:10282000D8B24B1C402B28BF0023A3421CBFF0543E
:102830001946531E13F0FF02F1D1CAB2294B1A7088
:102840002B4B1B6853B1A1422EBFC4EB0101C4F155
:10285000400409192729C4BF01221A70204BDA78D5
:10286000D2B212F0800F27D01B7913F0800F23D043
:10287000204B1C78E4B2204B1B78DBB29C4210D07A
:1028800017491E4D01E0A3420BD00133282B28BF6E
:1028900000230879E85CC0B2C871087DC0B207287F
:1028A000F1D9DBB214490B700D4B1B7913F0800F7B
:1028B00002D07C210A4BD97012F0400F0ED0084B89
:1028C0001B7913F0400F09D000220D4B1A700D4BED
:1028D0001B6803B11A703C22014BDA7070BC704760
:1028E00000B006404893FF1FDD92FF1F0893FF1FB3
:1028F000D892FF1F5093FF1F4993FF1FE092FF1FC5
:10290000DC92FF1F4C93FF1F174B1A6842F4805252
:102910001A600023154A1370154A1370154A137074
:10292000154A1370154A137040F21331144A11609E
:102930004FF4517104321160C0F34431114A1170E7
:10294000C0F34711517000F01F0090729370137420
:102950002C23D37040220C4B1A704FF40032A3F298
:102960002D331A60704700BF34800440C493FF1FAA
:102970005993FF1FCC93FF1FC593FF1F5893FF1F51
:1029800008C0044000C0064031E400E0164B9B78CC
:1029900003F0EC0300F00302134310F0040F18BF20
:1029A00043F01003104A937000F00F03042B04D17E
:1029B0001346927942F040029A710B4B5A7902F019
:1029C000EF0210F0100F18BF42F01002064B5A71C0
:1029D0009B7903F0EF0310F0200F18BF43F01003B2
:1029E000014A9371704700BF00C0064010B5144BF8
:1029F0001B6813F4805F21D0124B1B7813F0FF0F7C
:102A000006D0104CFFF7DCF8237813F0FF0FF9D154
:102A10004FF400320C4B1A6000230C4AD37040F282
:102A200003120B490A6004310A600A4A13700A4A09
:102A300013700A4B1B680BB101221A7010BD00BF46
:102A4000348004405893FF1F84E100E000C006403A
:102A500008C00440C493FF1F5993FF1F5493FF1FE6
:102A600010B50446094A137813F0FF0FFBD1204636
:102A70000121FEF79DF820460021FEF775F8044B72
:102A800053F83420034B1A6010BD00BF5893FF1F4A
:102A9000F8480000C893FF1F10B50D4B1B6813F4D6
:102AA000805F12D021280CD80A4C0B4B53F83030E1
:102AB00023600121FEF77CF8236800221A700120B0
:102AC00010BD0020034B186010BD002010BD00BFDA
:102AD000348004405493FF1FF84800000D4B1B68DE
:102AE00013F4805F13D00E280AD140F202320A4B51
:102AF0001A600A4B5A7B42F001025A730120704758
:102B0000064B5A7B02F0FE025A73002070470020E9
:102B1000704700BF3480044004C0044000C0064039
:102B20002DE9F04107461F4B1B6813F4805F37D037
:102B30001D4B1B680BB101221A701C4B1C78013411
:102B4000282C28BF00241A4D1A4EDFF86C8017E09D
:102B5000FFF792F840280FDC337913F0800F0FD085
:102B60002B780133282B28BF002318F80320D2B27A
:102B7000F271DBB22B7003E0FF2801DDFFF720F8D4
:102B80002B78DBB29C42E3D0FFB20B4B1F550122E6
:102B90000A4B1A70E4B2054B1C70AC22054BDA707C
:102BA000BDE8F08134800440C893FF1FCC93FF1F21
:102BB000C593FF1F00C006405C93FF1F5893FF1F83
:102BC00038B505460C4629B115F8010BFFF7A8FFEB
:102BD000013CF9D138BD00BF10B5064B1B7813F08E
:102BE000FF0F06D0034CFEF7EBFF237813F0FF0F27
:102BF000F9D110BD5893FF1F064B1B78DBB2064A74
:102C00001278D2B293422CBF273202F1FF32D01A8F
:102C1000704700BFCC93FF1FC593FF1F054B18786B
:102C2000C0B2054B1B78DBB2984238BF4030C01AA7
:102C3000704700BFC493FF1F5993FF1F10B4184B78
:102C40001A78D2B2174B1B78DBB29A4218D00133F4
:102C50003F2B18D81449C85CC0B2DCB211490C70C3
:102C600012490968C9B19A4203D300E00023D31A7C
:102C700001E04032D31A1A2B0FDC00230B700CE05A
:102C80004FF0FF3009E0084B1878C0B20021054B27
:102C90001970064B19680029E8D15DF8044B70479C
:102CA000C493FF1F5993FF1F8493FF1F5493FF1F6B
:102CB000094B1A78D2B2094B1B78DBB29A4207D083
:102CC0000133402B28BF0023054AD05CC0B27047B7
:102CD0004FF0FF30704700BFC493FF1F5993FF1F91
:102CE0008493FF1F054B1A78D2B2054B1A70054B1F
:102CF0001B680BB100221A70704700BF5993FF1F69
:102D0000C493FF1F5493FF1F2F4B1B7913F0200F09
:102D100023D02D4BDB79D9B22C4B1B780133402BC0
:102D200028BF00232A4A1278D2B29A4204D0294AF4
:102D3000D154D9B2254A1170274A116869B1274A7E
:102D40001278D2B293422EBFC2EB0303C2F140020B
:102D50009B18272BC4BF01230B701B4BDB78DBB206
:102D600013F0800F1CD0184A127912F0800F17D080
:102D70001B4A1178C9B2194A1278D2B2914203D1D2
:102D80006C21114AD1700BE00132282A28BF0022A1
:102D90001449885CC0B20C49C871D2B20F490A709C
:102DA00013F0400F0ED0084B1B7913F0400F09D0E1
:102DB00000220D4B1A700D4B1B6803B11A702C22A8
:102DC000014BDA70704700BF00C00640C493FF1F7C
:102DD0005993FF1F8493FF1F5493FF1FC593FF1F39
:102DE000CC93FF1F5C93FF1F5893FF1FC893FF1FD7
:102DF00000B585B072B61B4B70221A7041211A4A79
:102E000011700F21013A117080221A701A4613783E
:102E100013F0800FFBD0154B186862B6144B984224
:102E20009CBF00EB8000400001A90A22FEF744FF8E
:102E30009DF804307BB908E001A9595C31B191805B
:102E4000023201330A2BF7D100E0002301335B008B
:102E5000084A137003E0074A53800123ECE705B0EA
:102E60005DF804FB00000240070002400800024039
:102E70007F969800F887FF1F08B503681B68C9B2E2
:102E8000984708BD08B503681B68C9B2984708BDD4
:102E900008B503681B68C9B2984708BD08B5036840
:102EA0001B68C9B2984708BD08B5044800EB51003B
:102EB000B0FBF1F0FEF722FF08BD00BF004495080B
:102EC00010B51446054800EB5100B0FBF1F0FEF7D9
:102ED00015FF2046FEF758FF10BD00BF00449508BF
:102EE00008B5FEF781FF08BD08B50846FEF7B6FF36
:102EF00008BD00BF08B50846FEF7CCFF003018BF7C
:102F0000012008BD08B50846FEF7E6FF003018BFEF
:102F1000012008BD08B5FFF7DFF808BD08B5FFF7C9
:102F200025F908BD08B5FFF7E7F808BD08B5FFF7B4
:102F3000B1F808BD08B5FFF733F908BD08B5FFF7CC
:102F4000B9F808BD08B50846FEF7F2FF012008BD34
:102F500008B50846FEF7ECFF012008BD10B5144681
:102F600008461146FFF734F8204610BD38B50D4627
:102F7000084601F0F5FA044628462146FFF728F8EE
:102F8000204638BD704700BF044B00221A714FF431
:102F90007A7199601A73024A1A607047D093FF1FC2
:102FA000904A000008B503681B68C9B2984708BD7D
:102FB00008B503681B68C9B2984708BD08B503681F
:102FC0001B68C9B2984708BD08B503681B68C9B239
:102FD000984708BD08B5044800EB5100B0FBF1F07C
:102FE000FFF794F908BD00BF0044950810B51446DA
:102FF000054800EB5100B0FBF1F0FFF787F92046E0
:10300000FFF7CAF910BD00BF0044950808B5FFF7E7
:10301000F3F908BD08B50846FFF728FA08BD00BF58
:1030200008B50846FFF73EFA003018BF012008BD7A
:1030300008B50846FFF758FA003018BF012008BD50
:1030400008B5FFF747FB08BD08B5FFF78DFB08BDC6
:1030500008B5FFF74FFB08BD08B5FFF719FB08BD22
:1030600008B5FFF79BFB08BD08B5FFF721FB08BDBE
:1030700008B50846FFF75AFA012008BD08B508460A
:10308000FFF754FA012008BD10B514460846114652
:10309000FFF79CFA204610BD38B50D46084601F0F2
:1030A0005FFA044628462146FFF790FA204638BDCD
:1030B000704700BF044B00221A714FF47A71996077
:1030C0001A73024A1A607047E093FF1FE84A000033
:1030D00008B503681B68C9B2984708BD08B50368FE
:1030E0001B68C9B2984708BD08B503681B68C9B218
:1030F000984708BD08B503681B68C9B2984708BD62
:1031000008B5044800EB5100B0FBF1F0FFF7FCFB01
:1031100008BD00BF00A24A0410B51446054800EBE4
:103120005100B0FBF1F0FFF7EFFB2046FFF72EFC5C
:1031300010BD00BF00A24A0408B5FFF757FC08BD48
:1031400008B50846FFF78CFC08BD00BF08B5084667
:10315000FFF7A2FC003018BF012008BD08B50846E3
:10316000FFF7BCFC003018BF012008BD08B5FFF711
:1031700055FD08BD08B5FFF79BFD08BD08B5FFF775
:103180005DFD08BD08B5FFF727FD08BD08B5FFF7D1
:10319000A9FD08BD08B5FFF72FFD08BD08B5084615
:1031A000FFF7BEFC012008BD08B50846FFF7B8FCD4
:1031B000012008BD10B5144608461146FFF700FD72
:1031C000204610BD38B50D46084601F0C9F9044641
:1031D00028462146FFF7F4FC204638BD704700BF63
:1031E000044B00221A714FF47A7199601A73024AE3
:1031F0001A607047F093FF1F404B000081F00041C0
:1032000002E000BF83F0004330B54FEA41044FEACB
:10321000430594EA050F08BF90EA020F1FBF54EA66
:10322000000C55EA020C7FEA645C7FEA655C00F002
:10323000E2804FEA5454D4EB5555B8BF6D420CDDD3
:103240002C4480EA020281EA030382EA000083EA56
:10325000010180EA020281EA0303362D88BF30BDF6
:1032600011F0004F4FEA01314FF4801C4CEA11314C
:1032700002D0404261EB410113F0004F4FEA0333AB
:103280004CEA133302D0524263EB430394EA050F36
:1032900000F0A780A4F10104D5F1200E0DDB02FAA5
:1032A0000EFC22FA05F2801841F1000103FA0EF239
:1032B000801843FA05F359410EE0A5F120050EF1FF
:1032C000200E012A03FA0EFC28BF4CF0020C43FA30
:1032D00005F3C01851EBE37101F0004507D54FF03D
:1032E000000EDCF1000C7EEB00006EEB0101B1F58D
:1032F000801F1BD3B1F5001F0CD349085FEA3000D3
:103300004FEA3C0C04F101044FEA445212F5800FDD
:1033100080F09A80BCF1004F08BF5FEA500C50F17A
:10332000000041EB045141EA050130BD5FEA4C0C5D
:10333000404141EB010111F4801FA4F10104E9D1E6
:1033400091F0000F04BF01460020B1FA81F308BFDD
:103350002033A3F10B03B3F120020CDA0C3208DDA9
:1033600002F1140CC2F10C0201FA0CF021FA02F184
:103370000CE002F11402D8BFC2F1200C01FA02F1F4
:1033800020FA0CFCDCBF41EA0C019040E41AA2BF19
:1033900001EB0451294330BD6FEA04041F3C1CDAE1
:1033A0000C340EDC04F11404C4F1200220FA04F001
:1033B00001FA02F340EA030021FA04F345EA0301AB
:1033C00030BDC4F10C04C4F1200220FA02F001FA6D
:1033D00004F340EA0300294630BD21FA04F02946EF
:1033E00030BD94F0000F83F4801306BF81F4801188
:1033F0000134013D4EE77FEA645C18BF7FEA655CFB
:1034000029D094EA050F08BF90EA020F05D054EACC
:10341000000C04BF1946104630BD91EA030F1EBFD1
:103420000021002030BD5FEA545C05D140004941D5
:1034300028BF41F0004130BD14F580043CBF01F5C8
:10344000801130BD01F0004545F0FE4141F47001AE
:103450004FF0000030BD7FEA645C1ABF1946104689
:103460007FEA655C1CBF0B46024650EA013406BF8A
:1034700052EA033591EA030F41F4002130BD00BF49
:1034800090F0000F04BF0021704730B54FF4806406
:1034900004F132044FF000054FF0000150E700BF87
:1034A00090F0000F04BF0021704730B54FF48064E6
:1034B00004F1320410F0004548BF40424FF00001D3
:1034C0003EE700BF42004FEAE2014FEA31014FEA16
:1034D00002701FBF12F07F4393F07F4F81F0605165
:1034E000704792F0000F14BF93F07F4F704730B5D4
:1034F0004FF4607401F0004521F0004120E700BF67
:1035000050EA010208BF704730B54FF000050AE0ED
:1035100050EA010208BF704730B511F0004502D5EE
:10352000404261EB41014FF4806404F132045FEAF0
:10353000915C3FF4DCAE4FF003025FEADC0C18BF95
:1035400003325FEADC0C18BF033202EBDC02C2F18B
:10355000200300FA03FC20FA02F001FA03FE40EA1D
:103560000E0021FA02F11444C1E600BF70B54FF01D
:10357000FF0C4CF4E06C1CEA11541DBF1CEA1355FF
:1035800094EA0C0F95EA0C0F00F0DEF82C4481EA67
:10359000030621EA4C5123EA4C5350EA013518BF87
:1035A00052EA033541F4801143F4801338D0A0FB74
:1035B00002CE4FF00005E1FB02E506F00042E0FB21
:1035C00003E54FF00006E1FB03569CF0000F18BF27
:1035D0004EF0010EA4F1FF04B6F5007F64F54074CF
:1035E00004D25FEA4E0E6D4146EB060642EAC62162
:1035F00041EA55514FEAC52040EA5E504FEACE2ECF
:10360000B4F1FD0C88BFBCF5E06F1ED8BEF1004FD1
:1036100008BF5FEA500E50F1000041EB045170BD4D
:1036200006F0004646EA010140EA020081EA030191
:10363000B4EB5C04C2BFD4EB0C0541EA045170BD8D
:1036400041F480114FF0000E013C00F3AB8014F107
:10365000360FDEBF002001F0004170BDC4F1000450
:10366000203C35DA0C341BDC04F11404C4F12005D1
:1036700000FA05F320FA04F001FA05F240EA02002C
:1036800001F0004221F0004110EBD37021FA04F662
:1036900042EB06015EEA430E08BF20EAD37070BD1C
:1036A000C4F10C04C4F1200500FA04F320FA05F07B
:1036B00001FA04F240EA020001F0004110EBD3707D
:1036C00041F100015EEA430E08BF20EAD37070BDED
:1036D000C4F1200500FA05F24EEA020E20FA04F3C6
:1036E00001FA05F243EA020321FA04F001F0004175
:1036F00021FA04F220EA020000EBD3705EEA430EE6
:1037000008BF20EAD37070BD94F0000F0FD101F014
:103710000046400041EB010111F4801F08BF013C4D
:10372000F7D041EA060195F0000F18BF704703F08B
:103730000046520043EB030313F4801F08BF013D12
:10374000F7D043EA0603704794EA0C0F0CEA1355CE
:1037500018BF95EA0C0F0CD050EA410618BF52EA88
:103760004306D1D181EA030101F000414FF000008E
:1037700070BD50EA410606BF1046194652EA43069C
:1037800019D094EA0C0F02D150EA013613D195EA10
:103790000C0F05D152EA03361CBF104619460AD158
:1037A00081EA030101F0004141F0FE4141F4700162
:1037B0004FF0000070BD41F0FE4141F4780170BD52
:1037C00070B54FF0FF0C4CF4E06C1CEA11541DBFB7
:1037D0001CEA135594EA0C0F95EA0C0F00F0A7F8B9
:1037E000A4EB050481EA030E52EA03354FEA0131E6
:1037F00000F088804FEA03334FF0805545EA1313F9
:1038000043EA12634FEA022245EA111545EA1065C0
:103810004FEA00260EF000419D4208BF964244F157
:10382000FD0404F5407402D25B084FEA3202B61A76
:1038300065EB03055B084FEA32024FF480104FF44A
:10384000002CB6EB020E75EB030E22BFB61A7546BE
:1038500040EA0C005B084FEA3202B6EB020E75EB51
:10386000030E22BFB61A754640EA5C005B084FEAB9
:103870003202B6EB020E75EB030E22BFB61A754686
:1038800040EA9C005B084FEA3202B6EB020E75EB91
:10389000030E22BFB61A754640EADC0055EA060E52
:1038A00018D04FEA051545EA16754FEA06164FEA95
:1038B000C30343EA52734FEAC2025FEA1C1CC0D141
:1038C00011F4801F0BD141EA00014FF000004FF0CE
:1038D000004CB6E711F4801F04BF01430020B4F18F
:1038E000FD0C88BFBCF5E06F3FF6AFAEB5EB030C47
:1038F00004BFB6EB020C5FEA500C50F1000041EB44
:10390000045170BD0EF0004E4EEA113114EB5C0410
:10391000C2BFD4EB0C0541EA045170BD41F48011E3
:103920004FF0000E013C90E645EA060E8DE60CEAEB
:10393000135594EA0C0F08BF95EA0C0F3FF43BAF08
:1039400094EA0C0F0AD150EA01347FF434AF95EABF
:103950000C0F7FF425AF104619462CE795EA0C0FA3
:1039600006D152EA03353FF4FDAE1046194622E770
:1039700050EA410618BF52EA43067FF4C5AE50EA4A
:1039800041047FF40DAF52EA43057FF4EBAE12E73A
:103990004FF0FF3C06E000BF4FF0010C02E000BF1B
:1039A0004FF0010C4DF804CD4FEA410C7FEA6C5CFE
:1039B0004FEA430C18BF7FEA6C5C1BD001B050EAA1
:1039C000410C0CBF52EA430C91EA030F02BF90EA8C
:1039D000020F0020704710F1000F91EA030F58BF4B
:1039E000994208BF90422CBFD8176FEAE37040F0AD
:1039F000010070474FEA410C7FEA6C5C02D150EA4B
:103A0000013C07D14FEA430C7FEA6C5CD6D152EA05
:103A1000033CD3D05DF8040B704700BF84461046CA
:103A200062468C461946634600E000BF01B5FFF7C9
:103A3000B7FF002848BF10F1000F01BD4DF808ED99
:103A4000FFF7F4FF0CBF012000205DF808FB00BF6A
:103A50004DF808EDFFF7EAFF34BF012000205DF8C4
:103A600008FB00BF4DF808EDFFF7E0FF94BF012011
:103A700000205DF808FB00BF4DF808EDFFF7CEFF12
:103A800094BF012000205DF808FB00BF4DF808ED51
:103A9000FFF7C4FF34BF012000205DF808FB00BF22
:103AA0004A0011D212F5001211D20DD56FF47873BD
:103AB000B3EB62520ED44FEAC12343F0004343EA12
:103AC000505323FA02F070474FF00000704750EA5D
:103AD000013002D14FF0FF3070474FF000007047C7
:103AE00080F0004002E000BF81F0004142001FBFB3
:103AF0005FEA410392EA030F7FEA226C7FEA236CBC
:103B00006AD04FEA1262D2EB1363C1BFD2184140B0
:103B100048404140B8BF5B42192B88BF704710F046
:103B2000004F40F4000020F07F4018BF404211F0E9
:103B3000004F41F4000121F07F4118BF494292EA51
:103B4000030F3FD0A2F1010241FA03FC10EB0C007D
:103B5000C3F1200301FA03F100F0004302D549420A
:103B600060EB4000B0F5000F13D3B0F1807F06D3B7
:103B700040084FEA310102F10102FE2A51D2B1F1AF
:103B8000004F40EBC25008BF20F0010040EA0300A4
:103B90007047490040EB000010F4000FA2F1010251
:103BA000EDD1B0FA80FCACF1080CB2EB0C0200FADB
:103BB0000CF0AABF00EBC25052421843BCBFD04029
:103BC0001843704792F0000F81F4000106BF80F4A3
:103BD00000000132013BB5E74FEA41037FEA226C66
:103BE00018BF7FEA236C21D092EA030F04D092F031
:103BF000000F08BF0846704790EA010F1CBF002065
:103C0000704712F07F4F04D1400028BF40F00040C1
:103C1000704712F100723CBF00F50000704700F0E1
:103C2000004343F0FE4040F4000070477FEA226208
:103C300016BF08467FEA23630146420206BF5FEAD9
:103C4000412390EA010F40F4800070474FF00003D9
:103C500004E000BF10F0004348BF40425FEA000CA0
:103C600008BF704743F0964301464FF000001CE048
:103C700050EA010208BF70474FF000030AE000BF9E
:103C800050EA010208BF704711F0004302D54042DC
:103C900061EB41015FEA010C02BF8446014600204E
:103CA00043F0B64308BFA3F18053A3F50003BCFA69
:103CB0008CF2083AA3EBC25310DB01FA02FC634416
:103CC00000FA02FCC2F12002BCF1004F20FA02F21D
:103CD00043EB020008BF20F00100704702F1200210
:103CE00001FA02FCC2F1200250EA4C0021FA02F271
:103CF00043EB020008BF20EADC7070474FF0FF0C76
:103D00001CEAD0521EBF1CEAD15392EA0C0F93EA70
:103D10000C0F6FD01A4480EA010C400218BF5FEA12
:103D200041211ED04FF0006343EA501043EA511185
:103D3000A0FB01310CF00040B1F5000F3EBF49007F
:103D400041EAD3715B0040EA010062F17F02FD2A83
:103D50001DD8B3F1004F40EBC25008BF20F0010066
:103D6000704790F0000F0CF0004C08BF49024CEA7D
:103D7000502040EA51207F3AC2BFD2F1FF0340EA0F
:103D8000C250704740F400004FF00003013A5DDC80
:103D900012F1190FDCBF00F000407047C2F10002C1
:103DA000410021FA02F1C2F1200200FA02FC5FEAAE
:103DB000310040F1000053EA4C0308BF20EADC70F8
:103DC000704792F0000F00F0004C02BF400010F46A
:103DD000000F013AF9D040EA0C0093F0000F01F017
:103DE000004C02BF490011F4000F013BF9D041EA39
:103DF0000C018FE70CEAD15392EA0C0F18BF93EA3B
:103E00000C0F0AD030F0004C18BF31F0004CD8D164
:103E100080EA010000F00040704790F0000F17BFEB
:103E200090F0004F084691F0000F91F0004F14D031
:103E300092EA0C0F01D142020FD193EA0C0F03D189
:103E40004B0218BF084608D180EA010000F000408C
:103E500040F0FE4040F40000704740F0FE4040F467
:103E6000400070474FF0FF0C1CEAD0521EBF1CEA06
:103E7000D15392EA0C0F93EA0C0F69D0A2EB030224
:103E800080EA010C49024FEA402037D04FF08053BE
:103E900043EA111143EA10130CF000408B4238BF83
:103EA0005B0042F17D024FF4000C8B4224BF5B1A91
:103EB00040EA0C00B3EB510F24BFA3EB510340EADF
:103EC0005C00B3EB910F24BFA3EB910340EA9C008D
:103ED000B3EBD10F24BFA3EBD10340EADC001B01FD
:103EE00018BF5FEA1C1CE0D1FD2A3FF650AF8B42A1
:103EF00040EBC25008BF20F0010070470CF0004CAE
:103F00004CEA50207F32C2BFD2F1FF0340EAC250D8
:103F1000704740F400004FF00003013A37E792F099
:103F2000000F00F0004C02BF400010F4000F013AF7
:103F3000F9D040EA0C0093F0000F01F0004C02BFF2
:103F4000490011F4000F013BF9D041EA0C0195E75B
:103F50000CEAD15392EA0C0F08D142027FF47DAFF4
:103F600093EA0C0F7FF470AF084676E793EA0C0FE4
:103F700004D14B023FF44CAF08466EE730F0004CE2
:103F800018BF31F0004CCAD130F000427FF45CAF72
:103F900031F000437FF43CAF5FE700BF70B50F4ED8
:103FA0000F4D761BB61007D0043D0024013455F8A0
:103FB000043F9847A642F9D10A4E0B4D761B00F0FC
:103FC000EBFDB61008D0043D0024013455F8043F41
:103FD0009847A642F9D170BD70BD00BFA44B000048
:103FE000A44B0000BC4B0000A44B0000024B014658
:103FF000186800F003B800BF388CFF1F2DE9F04FA0
:1040000001F10B05162D83B0064627D935F00705BB
:1040100027D4A94225D8304600F08CFAB5F5FC7FAC
:1040200026D2C14F4FEAD50C07EBCC03DC689C428B
:1040300000F0D2816368E268A16823F0030323449F
:1040400030465D68CA6045F0010591605D6000F032
:1040500073FA0834204603B0BDE8F08F1025A9425A
:10406000D9D900240C232046336003B0BDE8F08F7B
:104070005FEA552C00F08A80BCF1040F00F26081E9
:104080004FEA951C0CF1380C4FEA4C01A64F07EB98
:104090008101CC68A14205D10CE0002B7ADAE468FA
:1040A000A14207D0626822F00302531B0F2BF4DDFC
:1040B0000CF1FF3C0CF1010C9B4B3C6903F1080E29
:1040C000744500F07E81616821F003014A1B0F2ACC
:1040D00000F36481002AC3F814E0C3F810E06ADA40
:1040E000B1F5007F80F03A81C90803EBC1004FEAC7
:1040F000A1085A688168A1604FF0010909FA08F81F
:1041000048EA0202E0605A608460CC604FEAAC0387
:104110000120984090425BD8024206D12CF0030C5B
:10412000400002420CF1040CFAD007EBCC084446E4
:10413000E146E3689C4207D145E1002A80F25681BE
:10414000DB689C4200F03F81596821F003014A1B63
:104150000F2AF2DD1C46D3F80CC054F8088F591909
:1041600045F0010942F00105C3F804903046C8F853
:104170000CC0CCF8088079613961C1F80CE0C1F855
:1041800008E04D608A5000F0D7F963E77E214FF0D8
:104190003F0C7BE72244E3685068A16840F00105CA
:1041A000CB6030469960556000F0C6F9083420466F
:1041B00003B0BDE8F08F214430464B6843F0010363
:1041C0004B6000F0B9F90834204603B0BDE8F08F29
:1041D000BC68636823F00309A94504D3C5EB090350
:1041E0000F2B00F39180514B514A1968136801332A
:1041F00005EB010A04EB090B00F061810AF5805A16
:104200000AF10F0A2AF47F6A2AF00F0A3046514653
:10421000019200F093F9B0F1FF3F8046019A00F05F
:104220000081834500F2FA80DFF810C1DCF800302D
:10423000C3455344CCF8003000F04A8112683C4931
:1042400001321BBFCBEB080B5B44C1F80080CCF8FC
:10425000003018F0070300F01381C3F10802C3F522
:10426000805390440833C244CAF30B0ACAEB030AD2
:1042700051463046CDF804C000F060F9431CDDF82B
:1042800004C000F03581C8EB0002524442F0010244
:10429000DCF80030C7F808805344BC42C8F804205A
:1042A000CCF80030DFF894A015D0B9F10F0F40F230
:1042B000EA806168A9F10C0222F0070201F0010E08
:1042C000A118052042EA0E0E0F2AC4F804E0486047
:1042D000886000F21181174ABC6811688B4288BF60
:1042E0001360154A11688B4288BF1360626822F020
:1042F00003029542C5EB020301D80F2B04DC3046C4
:1043000000F01AF90024A5E6621943F0010345F014
:10431000010565603046BA60536000F00DF908345D
:10432000204603B0BDE8F08F3C8CFF1F0894FF1FB0
:104330004890FF1F0494FF1F0094FF1F0C94FF1F61
:10434000BCF1140F61D9BCF1540F00F28F804FEA19
:10435000153C0CF16E0C4FEA4C0197E64B0A042B0E
:1043600058D9142B00F2AE8003F15B02500007EB2A
:104370008000DFF8BC818368834200F08A805A683D
:1043800022F00302914202D29B689842F7D1D96889
:104390007A68E160A3608C60DC60B7E6611942F086
:1043A000010745F001056560304659611961C1F8A2
:1043B0000CE0C1F808E04F608A50083400F0BCF807
:1043C00048E65A68A2E609F1010919F0030F04F161
:1043D00008047FF4AEAE2DE004F108036469A34243
:1043E00008BF0CF1020C3FF467AE23E619441C46EB
:1043F0004868DB6854F8082F40F001054D603046EE
:10440000D3609A6000F098F824E60CF15B0C4FEA58
:104410004C013BE68A0938325000A8E7BC423FF421
:1044200003AFBC68626822F0030262E7D8F800803C
:1044300098457BD11CF0030FA8F108030CF1FF3C59
:10444000F4D17B6823EA00037B60400098423FF68A
:10445000BFAE00283FF4BCAE0342CC467FF465AE4D
:10446000400003420CF1040CFAD05EE6BCF5AA7FD2
:104470001AD84FEAD53C0CF1770C4FEA4C0105E60F
:104480004FF48053EFE60123C8F80430444600227D
:104490002FE791100120D8F8042000FA01F10A4317
:1044A000C8F80420194674E740F254539C451BD8C1
:1044B0004FEA954C0CF17C0C4FEA4C01E6E50AF111
:1044C000100AA3E6542B1FD80A0B6E3250004EE799
:1044D000CBF30B0100297FF4B1AE0AEB0901BA68F6
:1044E00041F001015160F6E6FC214FF07E0CCDE574
:1044F00001224FF0000ACBE604F10801304600F03B
:10450000D5F8DAF80030E6E6B3F5AA7F03D8CA0B8F
:10451000773250002BE740F25452934203D88A0C72
:104520007C32500023E7FC207E2220E77B688CE76A
:104530003C8CFF1F704700BF704700BF38B5074C69
:104540000023054608462360FDF78EFB431C00D080
:1045500038BD2368002BFBD02B6038BD4894FF1F6B
:1045600020F0030110F00300C0F1000051F8043BFB
:1045700000F1040C4FEACC0C6FF000021CBF22FAD1
:104580000CF213434FF0010C4CEA0C2C4CEA0C4C8F
:10459000A3EB0C0222EA030212EACC1204BF51F888
:1045A000043B0430F4D013F0FF0F1FBF013013F4AD
:1045B0007F4F013013F47F0F18BF0130704700BFE9
:1045C000024B13B1024800F005B87047000000002C
:1045D000E1450000014600200246034600F034B9E0
:1045E00038B5094D094C641BA41018BF05EB8405B0
:1045F00005D0013C55F8043D9847002CF9D1BDE8A1
:10460000384000F0DBBA00BF0000000000000000EE
:10461000F8B5234D0F460446FFF78CFFAB685E6884
:1046200026F00306F11B01F6EF7121F47F6121F002
:104630000F01A1F58057B7F5805F07DB2046002109
:10464000FFF77CFFAB683344984204D02046FFF765
:1046500073FF0020F8BD20467942FFF76FFF01305D
:104660000DD0104BAA681968F61B46F001062046CB
:10467000C91B56601960FFF75FFF0120F8BD204697
:104680000021FFF75BFFAB68C21A0F2ADEDD064D83
:1046900004492D6842F00102401B5A600860D5E7CA
:1046A0003C8CFF1F0C94FF1F4890FF1F2DE9F04129
:1046B0000D460646002955D0FFF73CFF55F8041C6F
:1046C000DFF874C121F00103A5F10804E218DCF859
:1046D00008005768904227F0030769D011F00101E4
:1046E000576032D00021D0194068C00706D43B443F
:1046F000906800294ED0D268C260906043F00102F9
:104700006260E350E1B9B3F5007F2DD35A0A042A61
:104710006AD89809383041000CEB810C4649DCF826
:104720000820624566D0516821F003018B4202D215
:1047300092689445F7D1D368E360A2609C60D4602E
:104740003046BDE8F041FFF7F7BE55F8085C641B42
:104750000CF10808A06840452B4443D0E568C560CB
:10476000A860C0E7BDE8F081DB080CEBC3020125BF
:10477000DCF804009168A1609B1005FA03F318436C
:10478000E260CCF8040094603046CC60BDE8F041B3
:10479000FFF7D2BE294DA842ADD143F00102CCF8BB
:1047A0001440CCF81040E060A0606260E350C7E7BE
:1047B0001F44CB0707D455F8083CE41A1F44A268ED
:1047C000E368D3609A601E4B1B6847F001029F426A
:1047D0006260CCF80840B3D31A4B30461968FFF733
:1047E00017FFADE701217EE7142A0CD802F15B0028
:1047F000410091E74B688010012505FA00F0034362
:104800004B60134698E7542A03D8180B6E304100CA
:1048100082E7B2F5AA7F03D8D80B773041007BE757
:1048200040F254518A4203D8980C7C30410073E71F
:10483000FC217E2070E700BF3C8CFF1F448CFF1FD3
:104840004490FF1F0894FF1FF0B5274C2668D6F848
:10485000484185B00746002C41D065681F2D1EDDFC
:10486000224818B94FF0FF3005B0F0BD4FF4C870C2
:10487000039102920193FFF7B9FB0399029A019BFE
:1048800004460028EED0D6F848512560002060602C
:104890000546C6F84841C4F88801C4F88C013FB900
:1048A000AB1C00200135656044F8231005B0F0BD55
:1048B00004EB85004FF0010CC0F88820D4F8886123
:1048C0000CFA05F21643022FC4F88861C0F80831CB
:1048D000E6D1D4F88C311A43C4F88C21E0E706F510
:1048E000A674C6F84841B8E7944B0000ED3F0000BD
:1048F00052504D3A00FFFFFF4008FE4340A00440E5
:104900004408FE4344A004400018FE4300C0044095
:104910003000FE43309004403400FE4334900440A5
:104920001C18FE431CC004401018FE4310C0044075
:104930000818FE4308C004400C18FE430CC0044095
:104940000C10FE430CB004401010FE4310B00440A5
:104950001810FE4318B004401C10FE431CB0044065
:104960001410FE4314B004400418FE4304C0044075
:104970000010FE4300B004400008FE4300A00440C5
:104980000408FE4304A004400C08FE430CA00440AD
:104990000808FE4308A004401418FE4314C0044055
:1049A0001818FE4318C004400410FE4304B004402D
:1049B0000810FE4308B004401400FE431490044065
:1049C0004C08FE434CA004400420FE4304D00440A5
:1049D0002410FE4324B004402010FE4320B00440C5
:1049E0002810FE4328B004402C10FE432CB0044095
:1049F0000020FE4300D004404808FE4348A0044085
:104A00001000FE43109004400D0A0000FFFFFFFF5E
:104A10000000000000000000891B0000951B000042
:104A2000691B0000711B0000791B0000811B000046
:104A300000151915000100006C87FF1F120000000F
:104A4000000200009887FF1F4300000000030000E1
:104A5000F487FF1F00000000010309048087FF1F87
:104A60000000000002030904DC87FF1F00000000B3
:104A700003030904F887FF1F000000000000000086
:104A80000000000000000000000000000000000026
:104A9000452F00005D2F0000152F0000252F00007E
:104AA0001D2F00002D2F0000A92E0000C12E000098
:104AB000E12E0000E92E0000F52E0000052F000079
:104AC000352F00003D2F0000792E0000852E0000BC
:104AD000912E00009D2E00006D2F0000512F000030
:104AE000000000000000000071300000893000006C
:104AF00041300000513000004930000059300000C2
:104B0000D52F0000ED2F00000D3000001530000003
:104B100021300000313000006130000069300000B9
:104B2000A52F0000B12F0000BD2F0000C92F0000ED
:104B3000993000007D3000000000000000000000FF
:104B40009D310000B53100006D3100007D31000065
:104B5000753100008531000001310000193100007D
:104B600039310000413100004D3100005D3100005D
:104B70008D31000095310000D1300000DD300000A3
:104B8000E9300000F5300000C5310000A931000017
:104B9000430000001088FF1FF8B500BFF8BC08BC38
:104BA0009E467047C145000035040000A51B00006B
:0C4BB000892F0000B5300000E13100004A
:044BBC00F8B500BF89
:104BC0000C0A0400FFFFFFFF4C94FF1F12010002BC
:104BD00002000040C016830400010102030100002E
:104BE00018035400650065006E00730079006400CE
:104BF000750069006E006F0009024300020100C0E9
:104C00003209040000010202010005240010010520
:104C1000240101010424020605240600010705827F
:104C20000310004009040100020A00000007050308
:104C300002400000070584024000000016035500F2
:104C400053004200200053006500720069006100BB
:104C50006C000000040309040C03000000000000C5
:104C60000000000000000000000000000000000044
:104C700000000000FC8AFF1F648BFF1FCC8BFF1F0E
:104C80000000000000000000000000000000000024
:104C90000000000000000000000000000000000014
:104CA00000000000904B0000000000000000000029
:104CB00000000000000000000000000000000000F4
:104CC00000000000000000000000000000000000E4
:104CD00000000000000000000000000000000000D4
:104CE00000000000000000000000000000000000C4
:104CF00000000000000000000000000000000000B4
:104D000000000000000000000000000000000000A3
:104D10000000000000000000010000000000000092
:104D20000E33CDAB34126DE6ECDE05000B00000057
:104D30000000000000000000000000000000000073
:104D40000000000000000000000000000000000063
:104D50000000000000000000000000000000000053
:104D60000000000000000000000000000000000043
:1050900000000000000000001088FF1F000000005A
:1050A000000000003C8CFF1F3C8CFF1F448CFF1F46
:1050B000448CFF1F4C8CFF1F4C8CFF1F548CFF1F18
:1050C000548CFF1F5C8CFF1F5C8CFF1F648CFF1FC8
:1050D000648CFF1F6C8CFF1F6C8CFF1F748CFF1F78
:1050E000748CFF1F7C8CFF1F7C8CFF1F848CFF1F28
:1050F000848CFF1F8C8CFF1F8C8CFF1F948CFF1FD8
:10510000948CFF1F9C8CFF1F9C8CFF1FA48CFF1F87
:10511000A48CFF1FAC8CFF1FAC8CFF1FB48CFF1F37
:10512000B48CFF1FBC8CFF1FBC8CFF1FC48CFF1FE7
:10513000C48CFF1FCC8CFF1FCC8CFF1FD48CFF1F97
:10514000D48CFF1FDC8CFF1FDC8CFF1FE48CFF1F47
:10515000E48CFF1FEC8CFF1FEC8CFF1FF48CFF1FF7
:10516000F48CFF1FFC8CFF1FFC8CFF1F048DFF1FA6
:10517000048DFF1F0C8DFF1F0C8DFF1F148DFF1F53
:10518000148DFF1F1C8DFF1F1C8DFF1F248DFF1F03
:10519000248DFF1F2C8DFF1F2C8DFF1F348DFF1FB3
:1051A000348DFF1F3C8DFF1F3C8DFF1F448DFF1F63
:1051B000448DFF1F4C8DFF1F4C8DFF1F548DFF1F13
:1051C000548DFF1F5C8DFF1F5C8DFF1F648DFF1FC3
:1051D000648DFF1F6C8DFF1F6C8DFF1F748DFF1F73
:1051E000748DFF1F7C8DFF1F7C8DFF1F848DFF1F23
:1051F000848DFF1F8C8DFF1F8C8DFF1F948DFF1FD3
:10520000948DFF1F9C8DFF1F9C8DFF1FA48DFF1F82
:10521000A48DFF1FAC8DFF1FAC8DFF1FB48DFF1F32
:10522000B48DFF1FBC8DFF1FBC8DFF1FC48DFF1FE2
:10523000C48DFF1FCC8DFF1FCC8DFF1FD48DFF1F92
:10524000D48DFF1FDC8DFF1FDC8DFF1FE48DFF1F42
:10525000E48DFF1FEC8DFF1FEC8DFF1FF48DFF1FF2
:10526000F48DFF1FFC8DFF1FFC8DFF1F048EFF1FA1
:10527000048EFF1F0C8EFF1F0C8EFF1F148EFF1F4E
:10528000148EFF1F1C8EFF1F1C8EFF1F248EFF1FFE
:10529000248EFF1F2C8EFF1F2C8EFF1F348EFF1FAE
:1052A000348EFF1F3C8EFF1F3C8EFF1F448EFF1F5E
:1052B000448EFF1F4C8EFF1F4C8EFF1F548EFF1F0E
:1052C000548EFF1F5C8EFF1F5C8EFF1F648EFF1FBE
:1052D000648EFF1F6C8EFF1F6C8EFF1F748EFF1F6E
:1052E000748EFF1F7C8EFF1F7C8EFF1F848EFF1F1E
:1052F000848EFF1F8C8EFF1F8C8EFF1F948EFF1FCE
:10530000948EFF1F9C8EFF1F9C8EFF1FA48EFF1F7D
:10531000A48EFF1FAC8EFF1FAC8EFF1FB48EFF1F2D
:10532000B48EFF1FBC8EFF1FBC8EFF1FC48EFF1FDD
:10533000C48EFF1FCC8EFF1FCC8EFF1FD48EFF1F8D
:10534000D48EFF1FDC8EFF1FDC8EFF1FE48EFF1F3D
:10535000E48EFF1FEC8EFF1FEC8EFF1FF48EFF1FED
:10536000F48EFF1FFC8EFF1FFC8EFF1F048FFF1F9C
:10537000048FFF1F0C8FFF1F0C8FFF1F148FFF1F49
:10538000148FFF1F1C8FFF1F1C8FFF1F248FFF1FF9
:10539000248FFF1F2C8FFF1F2C8FFF1F348FFF1FA9
:1053A000348FFF1F3C8FFF1F3C8FFF1F448FFF1F59
:1053B000448FFF1F4C8FFF1F4C8FFF1F548FFF1F09
:1053C000548FFF1F5C8FFF1F5C8FFF1F648FFF1FB9
:1053D000648FFF1F6C8FFF1F6C8FFF1F748FFF1F69
:1053E000748FFF1F7C8FFF1F7C8FFF1F848FFF1F19
:1053F000848FFF1F8C8FFF1F8C8FFF1F948FFF1FC9
:10540000948FFF1F9C8FFF1F9C8FFF1FA48FFF1F78
:10541000A48FFF1FAC8FFF1FAC8FFF1FB48FFF1F28
:10542000B48FFF1FBC8FFF1FBC8FFF1FC48FFF1FD8
:10543000C48FFF1FCC8FFF1FCC8FFF1FD48FFF1F88
:10544000D48FFF1FDC8FFF1FDC8FFF1FE48FFF1F38
:10545000E48FFF1FEC8FFF1FEC8FFF1FF48FFF1FE8
:10546000F48FFF1FFC8FFF1FFC8FFF1F0490FF1F97
:105470000490FF1F0C90FF1F0C90FF1F1490FF1F44
:105480001490FF1F1C90FF1F1C90FF1F2490FF1FF4
:105490002490FF1F2C90FF1F2C90FF1F3490FF1FA4
:0C54A0003490FF1F00000200FFFFFFFF20
:00000001FF
